S01E000030362E44434D4F544F525F50574D5F434F4E54524F4C2E7372656387
S113000045C0000060C000005EC000005CC000008D
S11300105AC0000046C2000056C0000054C0000090
S113002052C0000050C000004EC000004CC0000090
S11300304AC0000048C0000046C0000044C00000A0
S113004089C0000040C0000080C100003CC0000026
S11300503AC0000038C0000036C0000034C00000C0
S113006032C0000030C000002EC000002CC00000D0
S11300702AC0000028C0000026C0000024C00000E0
S113008022C0000020C000001EC0000011241FBEBA
S1130090CFEFD0E1DEBFCDBF11E0A0E0B1E0E6E7F5
S11300A0FEE000E00BBF02C007900D92AC31B10737
S11300B0D9F724E0ACE1B1E001C01D92AA38B2073F
S11300C0E1F784D0D6C69CCF81B3877881BB0895ED
S11300D020B3422F50E021E030E002C0220F331F52
S11300E06A95E2F72423352321153105A1F0FC019B
S11300F0E45EFE4F408141110EC0EFE5FAEE319708
S1130100F1F700C00000FC01E45EFE4F21E0208313
S113011080E090E00895FC01E45EFE4F40814130B0
S113012079F4232B81F4FC01E45EFE4F10828FE509
S11301309AEE0197F1F700C0000081E090E0089585
S113014080E090E0089580E090E008958FEF8ABB0E
S11301501BBA08951F920F920FB60F9211248F931A
S11301609F93AF93BF9386E082BF809122019091C9
S11301702301A0912401B09125010196A11DB11D77
S11301808093220190932301A0932401B09325012D
S113019080912001909121010196909321018093F7
S11301A02001BF91AF919F918F910F900FBE0F903F
S11301B01F90189586E082BF83B7887F83BF83B77B
S11301C0846083BF87B7816087BF0895BFDFF2DF94
S11301D059D17ADF24D00BD030D080E091E09093D5
S11301E0870480938604789480E090E0089582B137
S11301F0886282B9ABE8B0E08C9181608C93EAE8C4
S1130200F0E08081886080838C9188608C93808109
S11302108360808310928300109282000895E1E647
S1130220F0E08081806C8083E2E6F0E0808180648D
S1130230808380818F778083089563E070E080E01D
S113024090E046DF892BE1F081E090E020912801E5
S113025030912901232B11F080E090E09093290143
S113026080932801892B39F08AEF90E090938300E2
S113027080938200E2CF1092830010928200DDCF3F
S113028064E070E081E090E023DF892BB1F080919D
S11302908200909183008A3F910538F08AEF90E0C4
S11302A09093830080938200C8CFE2E8F0E08081DD
S11302B09181449691838083C0CF65E070E082E0B1
S11302C090E006DF892BB1F0809182009091830049
S11302D08734910538F486E490E09093830080930A
S11302E08200ABCFE2E8F0E0808191814497918372
S11302F08083A3CF66E070E083E090E0E9DE892BA1
S113030009F49BCF81E090E02091260130912701F0
S1130310232B11F080E090E0909327018093260135
S1130320E2E6F0E080818F738083809126019091D2
S11303302701892B21F08081806880837ECFE2E6CB
S1130340F0E080818064808378CF1F920F920FB693
S11303500F9211240BB60F922F933F934F935F93F9
S11303606F937F938F939F93AF93BF93EF93FF9379
S1130370CF93DF931F92CDB7DEB78CB18983898188
S11303808A3019F089818D30C1F580912E019091C8
S11303902F0101962AE030E0B90169D2FC01809175
S11303A02C0190912D01B90162D2E817F90709F4E3
S11303B053C020912E0130912F0180912A019091F8
S11303C02B0140E5429FF001439FF00D1124EE5CA8
S11303D0FE4FE80FF91F108210922B0110922A0190
S11303E080912E0190912F0101966AE070E03FD236
S11303F090932F0180932E012FC080912E01909114
S11304002F0101962AE030E0B90131D2FC0180913C
S11304102C0190912D01B9012AD2E817F907E1F0D6
S113042060912E0170912F0180912A0190912B01EE
S11304309C012F5F3F4F30932B0120932A01498168
S113044050E5569F9001579F300D11242E5C3E4F6E
S1130450F901E80FF91F40830F90DF91CF91FF91CD
S1130460EF91BF91AF919F918F917F916F915F9128
S11304704F913F912F910F900BBE0F900FBE0F9095
S11304801F901895109290008FEC89B98BB18260FF
S11304908BB98AB188698AB908955D9BFECF8CB9FE
S11304A008951F920F920FB60F9211240BB60F925C
S11304B02F933F934F935F936F937F938F939F9368
S11304C0AF93BF93EF93FF930C9B03C01DBC1CBC65
S11304D031C06CB57DB580E090E0D8D020E034E246
S11304E044E759E461D120E030E040E854E45CD1D1
S11304F020E034E244E75BE430D097D070933101DC
S11305006093300180913001909131016AE370E091
S1130510AED17F936F938EE091E09F938F9382E5AA
S113052094E09F938F93CAD10F900F900F900F90E8
S11305300F900F90FF91EF91BF91AF919F918F9189
S11305407F916F915F914F913F912F910F900BBECF
S11305500F900FBE0F901F9018950CD0EBC0E3D0F6
S113056040F0DAD030F021F45F3F19F0CCC05111E3
S113057015C1CFC0F0D098F39923C9F35523B1F333
S1130580951B550BBB27AA2762177307840738F0FE
S11305909F5F5F4F220F331F441FAA1FA9F333D05D
S11305A00E2E3AF0E0E830D091505040E695001C11
S11305B0CAF729D0FE2F27D0660F771F881FBB1FCD
S11305C0261737074807AB07B0E809F0BB0B802DA7
S11305D0BF01FF2793585F4F2AF09E3F510568F0F3
S11305E092C0DCC05F3FECF3983EDCF386957795D0
S11305F06795B795F7959F5FC9F7880F911D9695F5
S1130600879597F90895E1E0660F771F881FBB1F50
S1130610621773078407BA0720F0621B730B840BFD
S1130620BA0BEE1F88F7E095089504D06894B111D1
S1130630B5C0089598D088F09F5790F0B92F9927A6
S1130640B751A0F0D1F0660F771F881F991F1AF0D9
S1130650BA95C9F712C0B13081F09FD0B1E00895C6
S11306609CC0672F782F8827B85F39F0B93FCCF347
S1130670869577956795B395D9F73EF490958095CF
S1130680709561957F4F8F4F9F4F0895E89409C0EF
S113069097FB3EF490958095709561957F4F8F4FB1
S11306A09F4F9923A9F0F92F96E9BB279395F695C7
S11306B0879577956795B795F111F8CFFAF4BB0F45
S11306C011F460FF1BC06F5F7F4F8F4F9F4F16C0A9
S11306D0882311F096E911C0772321F09EE8872F33
S11306E0762F05C0662371F096E8862F70E060E0EF
S11306F02AF09A95660F771F881FDAF7880F969568
S1130700879597F9089597F99F6780E870E060E00E
S113071008959FEF80EC089500240A941616170696
S113072018060906089500240A94121613061406DE
S113073005060895092E0394000C11F4882352F041
S1130740BB0F40F4BF2B11F460FF04C06F5F7F4FF9
S11307508F4F9F4F089557FD9058440F551F59F0E0
S11307605F3F71F04795880F97FB991F61F09F3F9A
S113077079F087950895121613061406551FF2CFC3
S11307804695F1DF08C0161617061806991FF1CF13
S113079086957105610508940895E894BB2766273A
S11307A07727CB0197F908950BD0C4CFB5DF28F094
S11307B0BADF18F0952309F0A6CFABCF1124EECF02
S11307C0CADFA0F3959FD1F3950F50E0551F629FA8
S11307D0F001729FBB27F00DB11D639FAA27F00D96
S11307E0B11DAA1F649F6627B00DA11D661F829FBD
S11307F02227B00DA11D621F739FB00DA11D621FA2
S1130800839FA00D611D221F749F3327A00D611DBE
S1130810231F849F600D211D822F762F6A2F1124A0
S11308209F5750408AF0E1F088234AF0EE0FFF1FF3
S1130830BB1F661F771F881F91505040A9F79E3F2A
S1130840510570F060CFAACF5F3FECF3983EDCF324
S1130850869577956795B795F795E7959F5FC1F767
S1130860FE2B880F911D9695879597F9089597FB10
S1130870072E16F4009406D077FD08D00BD007FCA1
S113088005D03EF4909581959F4F0895709561959C
S11308907F4F0895AA1BBB1B51E107C0AA1FBB1FB2
S11308A0A617B70710F0A61BB70B881F991F5A95F8
S11308B0A9F780959095BC01CD0108950F931F93DE
S11308C0CF93DF93CDB7DEB72E970FB6F894DEBF84
S11308D00FBECDBF0D891E8986E08C831A830983E0
S11308E08FEF9FE79E838D83AE01475E5F4F6F89D5
S11308F0788DCE01019610D0EF81F885E00FF11FBD
S113090010822E960FB6F894DEBF0FBECDBFDF91D6
S1130910CF911F910F9108952F923F924F925F9222
S11309206F927F928F929F92AF92BF92CF92DF92FB
S1130930EF92FF920F931F93CF93DF93CDB7DEB760
S11309402B970FB6F894DEBF0FBECDBF6C017B01B1
S11309508A01FC0117821682838181FFBFC1CE0107
S113096001963C01F6019381F70193FD859193FF74
S113097081917F01882309F4ADC1853239F493FD57
S1130980859193FF81917F01853221F4B60190E036
S1130990D6D1E8CF912C212C312CFFE1F315D8F0DE
S11309A08B3279F038F4803279F08332A1F4232D3C
S11309B020611DC08D3261F0803369F4232D2160E4
S11309C016C0832D8260382EE32DE4603E2E2AC0AB
S11309D0F32DF8601DC037FC2DC020ED280F2A3000
S11309E040F08E32B9F436FC75C1232D2064322ECA
S11309F019C036FE06C08AE0989E200D1124922E5E
S1130A0011C0EAE02E9E200D1124222EF32DF06257
S1130A103F2E08C08C3621F4832D8068382E02C006
S1130A20883641F4F70193FD859193FF81917F010D
S1130A308111B3CF982F9F7D9554933028F40C5F88
S1130A401F4F9FE399830DC0833631F0833771F0D4
S1130A50833509F055C020C0F801808189830E5F79
S1130A601F4F88248394912C530112C02801F2E073
S1130A704F0E511CF801A080B18036FE03C0692DD1
S1130A8070E002C06FEF7FEFC5014ED14C018201CF
S1130A90F32DFF773F2E15C0280122E0420E511C92
S1130AA0F801A080B18036FE03C0692D70E002C059
S1130AB06FEF7FEFC5012DD14C01F32DF0683F2E70
S1130AC0820133FC19C0822D90E088169906A0F4A7
S1130AD0B60180E290E033D12A94F5CFF50137FCDA
S1130AE0859137FE81915F01B60190E028D12110F4
S1130AF02A9421E0821A91088114910479F7E1C0C3
S1130B00843611F0893639F5F80137FE07C0608163
S1130B107181828193810C5F1F4F08C06081718154
S1130B20072E000C880B990B0E5F1F4FF32DFF76D9
S1130B303F2E97FF09C090958095709561957F4FE2
S1130B408F4F9F4FF0683F2E2AE030E0A30133D14E
S1130B50882E861844C0853731F4232D2F7EB22E7B
S1130B602AE030E025C0932D997FB92E8F36C1F04D
S1130B7018F4883579F0AEC0803719F0883721F041
S1130B80A9C0E92FE061BE2EB4FE0DC0FB2DF460B8
S1130B90BF2E09C034FE0AC0292F2660B22E06C01B
S1130BA028E030E005C020E130E002C020E132E07E
S1130BB0F801B7FE07C060817181828193810C5F67
S1130BC01F4F06C06081718180E090E00E5F1F4F6F
S1130BD0A301F1D0882E8618FB2DFF773F2E36FE19
S1130BE00DC0232D2E7FA22E891458F434FE0BC081
S1130BF032FC09C0832D8E7EA82E05C0B82CA32CF0
S1130C0003C0B82C01C0B92CA4FE0FC0FE01E80D2E
S1130C10F11D8081803321F49A2D997EA92E09C07B
S1130C20A2FE06C0B394B39404C08A2D867809F05A
S1130C30B394A3FC10C0A0FE06C0B21480F4280C28
S1130C40922C9B180DC0B21458F4B60180E290E0C7
S1130C5076D0B394F8CFB21418F42B1802C0982CA1
S1130C60212CA4FE0FC0B60180E390E068D0A2FE60
S1130C7016C0A1FC03C088E790E002C088E590E0BC
S1130C80B6010CC08A2D867851F0A1FE02C08BE219
S1130C9001C080E2A7FC8DE2B60190E050D0891437
S1130CA030F4B60180E390E04AD09A94F8CF8A9465
S1130CB0F301E80DF11D8081B60190E040D0811070
S1130CC0F6CF222009F44ECEB60180E290E037D070
S1130CD02A94F7CFF6018681978102C08FEF9FEFA8
S1130CE02B960FB6F894DEBF0FBECDBFDF91CF9128
S1130CF01F910F91FF90EF90DF90CF90BF90AF9036
S1130D009F908F907F906F905F904F903F902F9027
S1130D100895FC010590615070400110D8F780954A
S1130D2090958E0F9F1F0895FC01615070400190B3
S1130D300110D8F7809590958E0F9F1F08950F93FB
S1130D401F93CF93DF93FB01238121FD03C08FEF1A
S1130D509FEF2CC022FF16C0468157812481358124
S1130D604217530744F4A081B1819D012F5F3F4F87
S1130D70318320838C93268137812F5F3F4F3783C4
S1130D80268314C08B01EC01FB010084F185E02D66
S1130D900995892BE1F6D80116968D919C911797A8
S1130DA0019617969C938E931697CE01DF91CF915F
S1130DB01F910F910895FA01AA27283051F120318B
S1130DC081F1E8946F936E7F6E5F7F4F8F4F9F4FDB
S1130DD0AF4FB1E03ED0B4E03CD0670F781F891F1D
S1130DE09A1FA11D680F791F8A1F911DA11D6A0FEB
S1130DF0711D811D911DA11D20D009F468943F919E
S1130E002AE0269F11243019305D3193DEF6CF019C
S1130E100895462F4770405D4193B3E00FD0C9F762
S1130E20F6CF462F4F70405D4A3318F0495D31FDCF
S1130E304052419302D0A9F7EACFB4E0A695979522
S1130E40879577956795BA95C9F7009761057105F8
S1130E5008959B01AC010A2E069457954795379542
S1130E602795BA95C9F7620F731F841F951FA01D9C
S1090E700895F894FFCF81
S1130E7600000002000000004D020000000064694A
S10F0E86733A202564636D0A0025730094
S9030000FC
