S013000030372E4155544F5F4341522E737265630E
S113000077C0000092C0000090C000008EC00000C5
S11300108CC00000E6C2000031C300007CC30000B5
S113002084C0000082C0000080C000007EC00000C8
S11300307CC000007AC0000078C0000076C00000D8
S113004049C1000072C000006AC200006EC0000016
S11300506CC000006AC0000068C0000066C00000F8
S113006064C0000062C0000060C000005EC0000008
S11300705CC000005AC0000077C2000056C00000F7
S113008054C0000052C0000050C00000F400010140
S113009001010101F000010101010101010101015E
S11300A0F80001010101010101010101FC0000014D
S11300B0010101010101010101010101010101012C
S11300C0010101010101010101010101F40001012A
S11300D001010101F000010101010101010101011E
S11300E0F80001010101010101010101FC0000010D
S11300F011241FBECFEFD0E1DEBFCDBF11E0A0E0E1
S1130100B1E0E0EFFBE000E00BBF02C007900D920E
S1130110A233B107D9F721E0A2E3B1E001C01D92F7
S1130120AF34B207E1F746D161C56ACFE4E6F0E047
S113013080818B7F8083089520916300422F50E05B
S113014021E030E002C0220F331F6A95E2F7242336
S1130150352321153105A1F0FC01EE5CFE4F4081F1
S113016041110EC0EFE5FAEE3197F1F700C000003F
S1130170FC01EE5CFE4F21E0208380E090E00895D6
S1130180FC01EE5CFE4F4081413079F4232B81F475
S1130190FC01EE5CFE4F10828FE59AEE0197F1F7B9
S11301A000C0000081E090E0089580E090E00895B0
S11301B080E090E0089583E090E090933F01809385
S11301C03E0108950895E09148018E2F90E0FC01CE
S11301D0E254F109E233F105A0F4EA5BFF4FB9C43C
S11301E080E991E057C1089580E991E061C10895E3
S11301F084EF91E06BC1089584EF91E075C1089597
S113020081C1089580914001909141010A970CF4B5
S113021060C0109241011092400180913C01909184
S11302203D01009721F480E090E0DAD20CC08130E7
S1130230910521F481E090E0D3D205C0029719F42E
S113024082E090E0CDD280913C0190913D010297F3
S1130250A1F580914601909147011816190654F4AE
S11302608091460190914701459724F480E991E0FB
S11302703BD123C080914401909145011816190681
S113028044F48091440190914501459714F43AD186
S113029014C080914201909143011816190654F438
S11302A08091420190914301459724F480E991E0C3
S11302B00DD103C080E991E0EDD080913C01909193
S11302C03D01019663E070E031D490933D01809349
S11302D03C0108951F920F920FB60F9211242F9391
S11302E08F939F93AF93BF9386E082BF8091400129
S11302F09091410101969093410180934001809136
S1130300380190913901A0913A01B0913B010196D5
S1130310A11DB11D8093380190933901A0933A0136
S1130320B0933B01883E9340A105B10510F11092B2
S113033038011092390110923A0110923B018091D8
S1130340340190913501A0913601B09137010196A5
S1130350A11DB11D8093340190933501A093360102
S1130360B093370181E090913301911180E0809343
S11303703301BF91AF919F918F912F910F900FBE39
S11303800F901F90189586E082BF83B7887F83BF44
S113039083B7846083BF87B7816087BF0895E4E62D
S11303A0F0E0808188608083E5E6F0E08081877FEB
S11303B080830895E8DFC9D004D1B8DE54D03FD09B
S11303C0F7D1EDDF88E091E090934C0180934B01ED
S11303D086E191E0DBD3789462E070E080E090E025
S11303E0ABDE892BF9F080913E0190913F01892B7E
S11303F061F481E090E090933F0180933E01E5E653
S1130400F0E08081886080830DC010923F011092DB
S11304103E01E5E6F0E08081877F808373D083E549
S113042080934801E0913E01F0913F01EE0FFF1FE0
S1130430E050FF4F0190F081E02D0995CDCF8EB5AE
S113044083608EBD8FB582608FBD8EB588618EBD91
S11304508FB580688FBD8FB580628FBD8FEF93E0BD
S113046097BD86BD089587B38F7987BB87B38066B0
S113047087BBE1E6F0E08081807F808380818F60AC
S11304808083E2E6F0E08081807F808380818560E4
S1130490808308959C01E2E6F0E09081907F908350
S11304A090819560908339BD28BD3BBD2ABD0895D8
S11304B09C01E2E6F0E09081907F908390819A60C5
S11304C0908339BD28BD3BBD2ABD08959C01E2E659
S11304D0F0E09081907F90839081956090831BBC25
S11304E01ABC39BD28BD08959C01E2E6F0E0908174
S11304F0907F90839081956090833BBD2ABD19BC09
S113050018BC0895E2E6F0E08081807F80838081DA
S11305108F6080831BBC1ABC19BC18BC08951F9241
S11305200F920FB60F9211248F93CF93DF931F92E4
S1130530CDB7DEB78CB189830F90DF91CF918F91C6
S11305400F900FBE0F901F901895109290008FEC93
S113055089B98BB182608BB98AB188698AB90895E7
S11305605D9BFECF8CB908951F920F920FB60F9228
S113057011240BB60F922F933F934F935F936F9376
S11305807F938F939F93AF93BF93EF93FF93809148
S11305909C008093480180914801E2DFFF91EF9134
S11305A0BF91AF919F918F917F916F915F914F9187
S11305B03F912F910F900BBE0F900FBE0F901F9085
S11305C01895109298008FEC80939900EBE9F0E075
S11305D0808182608083EAE9F0E080818869808399
S11305E008951F920F920FB60F9211240BB60F921B
S11305F02F933F934F935F936F937F938F939F9327
S1130600AF93BF93EF93FF930C9B05C010928900A7
S11306101092880020C0609188007091890080E069
S113062090E093D120E034E244E759E41CD220E086
S113063030E040E854E417D220E034E244E75BE4DD
S1130640EBD020E030E048E652E4E6D04DD17093A0
S1130650470160934601FF91EF91BF91AF919F9144
S11306608F917F916F915F914F913F912F910F9057
S11306700BBE0F900FBE0F901F9018951F920F92F4
S11306800FB60F9211240BB60F922F933F934F93F3
S11306905F936F937F938F939F93AF93BF93EF93E6
S11306A0FF930D9B05C0109289001092880020C012
S11306B0609188007091890080E090E046D120E04C
S11306C034E244E759E4CFD120E030E040E854E498
S11306D0CAD120E034E244E75BE49ED020E030E07D
S11306E048E652E499D000D17093450160934401E7
S11306F0FF91EF91BF91AF919F918F917F916F91F6
S11307005F914F913F912F910F900BBE0F900FBEB1
S11307100F901F9018951F920F920FB60F921124ED
S11307200BB60F922F933F934F935F936F937F93E7
S11307308F939F93AF93BF93EF93FF930E9B05C04B
S1130740109289001092880020C0609188007091F6
S1130750890080E090E0F9D020E034E244E759E4F5
S113076082D120E030E040E854E47DD120E034E25E
S113077044E75BE451D020E030E048E652E44CD05A
S1130780B3D07093430160934201FF91EF91BF9105
S1130790AF919F918F917F916F915F914F913F9115
S11307A02F910F900BBE0F900FBE0F901F901895B6
S11307B08AB387608ABB82B18F7882B98AB7856130
S11307C08ABF8AB7857D8ABF89B7806789BFEAE80F
S11307D0F0E080818560808380818D7F80830895AF
S11307E04BB321E030E0B90102C0660F771F8A9550
S11307F0E2F7CB01962F909549234BBB75E07A9590
S1130800F1F700002BB3822B8BBB80E58A95F1F7BF
S11308108BB398239BBB08950CD0EBC0E3D040F07E
S1130820DAD030F021F45F3F19F0CCC0511115C17A
S1130830CFC0F0D098F39923C9F35523B1F3951B96
S1130840550BBB27AA2762177307840738F09F5FED
S11308505F4F220F331F441FAA1FA9F333D00E2E5C
S11308603AF0E0E830D091505040E695001CCAF7C9
S113087029D0FE2F27D0660F771F881FBB1F26178E
S113088037074807AB07B0E809F0BB0B802DBF0161
S1130890FF2793585F4F2AF09E3F510568F092C09E
S11308A0DCC05F3FECF3983EDCF386957795679563
S11308B0B795F7959F5FC9F7880F911D9695879512
S11308C097F90895E1E0660F771F881FBB1F621731
S11308D073078407BA0720F0621B730B840BBA0BEF
S11308E0EE1F88F7E095089504D06894B111B5C05F
S11308F0089598D088F09F5790F0B92F9927B75151
S1130900A0F0D1F0660F771F881F991F1AF0BA95CF
S1130910C9F712C0B13081F09FD0B1E008959CC0F6
S1130920672F782F8827B85F39F0B93FCCF38695C5
S113093077956795B395D9F73EF490958095709522
S113094061957F4F8F4F9F4F0895E89409C097FB9F
S11309503EF490958095709561957F4F8F4F9F4F92
S11309609923A9F0F92F96E9BB279395F6958795D6
S113097077956795B795F111F8CFFAF4BB0F11F499
S113098060FF1BC06F5F7F4F8F4F9F4F16C0882340
S113099011F096E911C0772321F09EE8872F762F76
S11309A005C0662371F096E8862F70E060E02AF0B7
S11309B09A95660F771F881FDAF7880F96958795A3
S11309C097F9089597F99F6780E870E060E00895CB
S11309D09FEF80EC089500240A9416161706180653
S11309E00906089500240A9412161306140605062F
S11309F00895092E0394000C11F4882352F0BB0FC0
S1130A0040F4BF2B11F460FF04C06F5F7F4F8F4F22
S1130A109F4F089557FD9058440F551F59F05F3F5D
S1130A2071F04795880F97FB991F61F09F3F79F00C
S1130A3087950895121613061406551FF2CF46958E
S1130A40F1DF08C0161617061806991FF1CF869510
S1130A507105610508940895E894BB2766277727F4
S1130A60CB0197F908950BD0C4CFB5DF28F0BADFD6
S1130A7018F0952309F0A6CFABCF1124EECFCADF2F
S1130A80A0F3959FD1F3950F50E0551F629FF0019D
S1130A90729FBB27F00DB11D639FAA27F00DB11DF6
S1130AA0AA1F649F6627B00DA11D661F829F22277F
S1130AB0B00DA11D621F739FB00DA11D621F839F06
S1130AC0A00D611D221F749F3327A00D611D231FDC
S1130AD0849F600D211D822F762F6A2F11249F572A
S1130AE050408AF0E1F088234AF0EE0FFF1FBB1F4D
S1130AF0661F771F881F91505040A9F79E3F5105EC
S1130B0070F060CFAACF5F3FECF3983EDCF386959C
S1130B1077956795B795F795E7959F5FC1F7FE2B96
S1130B20880F911D9695879597F9089597FB072E41
S1130B3016F4009406D077FD08D014D007FC05D035
S1130B403EF4909581959F4F0895709561957F4FE0
S1130B500895EE0FFF1F0024001C0BBE0790F691B2
S1130B60E02D0994AA1BBB1B51E107C0AA1FBB1FA0
S1130B70A617B70710F0A61BB70B881F991F5A9525
S1130B80A9F780959095BC01CD0108950F931F930B
S1130B90CF93DF93E0914B01F0914C01238121FF2E
S1130BA01BC08C01D0E0C0E0F80181918F016091FD
S1130BB04B0170914C01DB011896ED91FC91199752
S1130BC0882331F00995892B79F3DFEFCFEFECCF50
S1130BD08AE00995892B19F08FEF9FEF02C08D2FC2
S1130BE09C2FDF91CF911F910F910895F894FFCF1F
S1130BF0E300DB00E200020100000002000000004C
S1130C00B0020000000053797374656D2052656171
S1130C1064792E204D616E75616C204D6F64652E74
S1050C200D00C1
S9030000FC
