S015000031335F312E204C4344313630322E7372656331
S113000045C0000060C000005EC000005CC000008D
S11300105AC0000058C0000056C0000054C0000080
S113002052C0000050C000004EC000004CC0000090
S11300304AC0000048C0000046C0000044C00000A0
S113004095C0000040C000003FC200003CC000005A
S11300503AC0000038C0000036C0000034C00000C0
S113006032C0000030C000002EC000002CC00000D0
S11300702AC0000028C0000026C0000024C00000E0
S113008022C0000020C000001EC0000011241FBEBA
S1130090CFEFD0E1DEBFCDBF11E0A0E0B1E0E8E8F2
S11300A0FCE000E00BBF02C007900D92AA3DB1072F
S11300B0D9F725E0AAEDB1E001C01D92A830B2073E
S11300C0E1F779D0DFC59CCF81B3816081BB81B377
S11300D0826081BB88E480937000089584EA8093F1
S11300E07400809174008823E4F70895809373006A
S11300F084EC80937400809174008823E4F708955D
S113010084EC80937400809174008823E4F78091D8
S11301107300089584E880937400809174008823A8
S1130120E4F780917300089584E98093740008953E
S1130130982F92959F70990F292F220F220F920FBB
S11301408F70890F08959DEC899F912D11249695A8
S11301509695969520E1929FA0011124990F292F3D
S1130160220F220F920F891B842B08951F920F9246
S11301700FB60F9211248F939F9386E082BF8091D4
S1130180DA019091DB0101969093DB018093DA010F
S11301909F918F910F900FBE0F901F90189586E03E
S11301A082BF83B7887F83BF83B7846083BF87B7E9
S11301B0816087BF0895CF93DF93CDB7DEB767978C
S11301C00FB6F894DEBF0FBECDBF2BD12AEA36EEB0
S11301D086E991E02150304080409040D9F70000FA
S11301E073DFFCD181E091E09093050580930405D1
S11301F086E191E03CD27894D2DF87E0EFE0F1E051
S1130200DE01519601900D928A95E1F780E391E029
S11302102ED264DF80ED6ADF80E068DF10E018C072
S1130220E12EF12C1F921F9389E491E09F938F9309
S11302300BD2E1E1F0E0EC0FFD1FEE0DFF1D80811C
S113024090E081DF53DF1F5F0F900F900F900F90AE
S1130250173030F369DF2FEF37EA81E62150304061
S11302608040E1F700C0000083E691E000D236DF71
S113027080ED3CDF80E03ADF57DF30DF81ED36DFB1
S11302803FDF90E055DF7C013BDF90E051DF8C01E4
S113029037DF90E04DDF3C0133DF90E049DF30DFB2
S11302A090E046DF4C012CDF90E042DF5C0132DF5E
S11302B090E03EDF6C0138DFFF2411277724992476
S11302C0BB24DD24FF92EF921F930F937F926F92D2
S11302D09F928F92BF92AF92DF92CF928AE991E080
S11302E09F938F93B1D162E080E0E4D09F928F928C
S11302F0BF92AF92DF92CF928CEB91E09F938F935A
S11303009E012F5F3F4F69013F932F93E0D1C601B8
S1130310BFD062E081E0CED0FF92EF921F930F93A3
S11303207F926F928BEC91E09F938F93DF92CF92A9
S1130330CED10FB6F894DEBF0FBECDBFC601A8D094
S11303409FEF23ED30E3915020403040E1F700C0AF
S113035000004ED08CCF85B3846085BB85E08A9540
S1130360F1F7000085B38B7F85BB8FE99FE0019790
S1130370F1F700C000000895CF93C82F85B38160C2
S113038085BB80910001883019F4C8BBE4DF0AC042
S11303908C2F807F88BBDFDF20E1C29FC001112446
S11303A088BBD9DF8FE39FE10197F1F700C000001C
S11303B0CF910895CF93C82F85B38E7F85BB80914D
S11303C00001883019F4C8BBC6DF0AC08C2F807FB7
S11303D088BBC1DF20E1C29FC001112488BBBBDF01
S11303E08FE39FE10197F1F700C00000CF910895DA
S11303F081E0E0DF8FE39FE10197F1F700C00000A7
S1130400089595B39E7F95BB95B39D7F95BB28B307
S113041030E1839FC00111242F70822B88BB9BCFB6
S1130420089587B3806F87BB18BA84B3876084BB91
S113043085B38D7F85BB8FE59AEE0197F1F700C0F8
S1130440000083E090E0DDDF8FE19EE40197F1F7A7
S113045000C0000083E090E0D4DF87E592E00197DC
S1130460F1F700C0000083E090E0CBDF82E090E091
S1130470C8DF88E29FDF88E09DDF81E09BDF8FE3B8
S11304809FE10197F1F700C000008CE093CF08953D
S11304900F931F93CF938C01C0E002C06DDFCF5F39
S11304A0F801EC0FF11D80818111F8CFCF911F91DC
S11304B00F9108956F70817090E4899F600D1124ED
S11304C0862F805877CF08951F920F920FB60F9200
S11304D011240BB60F922F933F934F935F936F9317
S11304E07F938F939F93AF93BF93EF93FF93CF9398
S11304F0DF931F92CDB7DEB78CB18983809100055D
S11305009091010501962AE030E0B90176D0FC0112
S11305108091FE049091FF04B9016FD0E817F907A8
S113052009F446C089818A3019F089818D3021F51A
S11305302091FE043091FF048091DC019091DD0153
S113054040E5429FF001439FF00D1124E252FE4F1B
S1130550E80FF91F10821092DD011092DC018091E6
S113056000059091010501966AE070E046D09093F1
S11305700105809300051CC0609100057091010580
S11305808091DC019091DD019C012F5F3F4F3093FE
S1130590DD012093DC01498150E5569F9001579F6E
S11305A0300D112422523E4FF901E80FF91F408308
S11305B00F90DF91CF91FF91EF91BF91AF919F91F8
S11305C08F917F916F915F914F913F912F910F90F8
S11305D00BBE0F900FBE0F901F90189510929000B5
S11305E08FEC89B98BB182608BB98AB188698AB979
S11305F008955D9BFECF8CB9089597FB072E16F4E2
S1130600009406D077FD08D00BD007FC05D03EF44B
S1130610909581959F4F0895709561957F4F0895AA
S1130620AA1BBB1B51E107C0AA1FBB1FA617B70714
S113063010F0A61BB70B881F991F5A95A9F7809530
S11306409095BC01CD010895CF93DF93CDB7DEB76C
S1130650AE014B5F5F4FFA0161917191AF018091DF
S113066004059091050561D0DF91CF9108950F9312
S11306701F93CF93DF93E0910405F0910505238147
S113068021FF1BC08C01D0E0C0E0F80181918F01F3
S11306906091040570910505DB011896ED91FC91BC
S11306A01997882331F00995892B79F3DFEFCFEF80
S11306B0ECCF8AE00995892B19F08FEF9FEF02C0E8
S11306C08D2F9C2FDF91CF911F910F9108950F9340
S11306D01F93CF93DF93CDB7DEB72E970FB6F89461
S11306E0DEBF0FBECDBF0D891E8986E08C831A83C1
S11306F009838FEF9FE79E838D83AE01475E5F4F33
S11307006F89788DCE01019610D0EF81F885E00FC6
S1130710F11F10822E960FB6F894DEBF0FBECDBF28
S1130720DF91CF911F910F9108952F923F924F9295
S11307305F926F927F928F929F92AF92BF92CF926D
S1130740DF92EF92FF920F931F93CF93DF93CDB776
S1130750DEB72B970FB6F894DEBF0FBECDBF6C018A
S11307607B018A01FC0117821682838181FFBFC14C
S1130770CE0101963C01F6019381F70193FD859129
S113078093FF81917F01882309F4ADC1853239F447
S113079093FD859193FF81917F01853221F4B60108
S11307A090E0D6D1E8CF912C212C312CFFE1F31528
S11307B0D8F08B3279F038F4803279F08332A1F4B6
S11307C0232D20611DC08D3261F0803369F4232D07
S11307D0216016C0832D8260382EE32DE4603E2E06
S11307E02AC0F32DF8601DC037FC2DC020ED280F62
S11307F02A3040F08E32B9F436FC75C1232D2064C2
S1130800322E19C036FE06C08AE0989E200D1124AF
S1130810922E11C0EAE02E9E200D1124222EF32DDB
S1130820F0623F2E08C08C3621F4832D8068382E68
S113083002C0883641F4F70193FD859193FF8191BD
S11308407F018111B3CF982F9F7D9554933028F465
S11308500C5F1F4F9FE399830DC0833631F08337BC
S113086071F0833509F055C020C0F8018081898377
S11308700E5F1F4F88248394912C530112C02801CA
S1130880F2E04F0E511CF801A080B18036FE03C087
S1130890692D70E002C06FEF7FEFC5014ED14C01AE
S11308A08201F32DFF773F2E15C0280122E0420E6E
S11308B0511CF801A080B18036FE03C0692D70E0A0
S11308C002C06FEF7FEFC5012DD14C01F32DF0680D
S11308D03F2E820133FC19C0822D90E088169906C0
S11308E0A0F4B60180E290E033D12A94F5CFF5016B
S11308F037FC859137FE81915F01B60190E028D1E4
S113090021102A9421E0821A91088114910479F724
S1130910E1C0843611F0893639F5F80137FE07C095
S113092060817181828193810C5F1F4F08C0608157
S11309307181072E000C880B990B0E5F1F4FF32D4E
S1130940FF763F2E97FF09C090958095709561952D
S11309507F4F8F4F9F4FF0683F2E2AE030E0A30176
S113096033D1882E861844C0853731F4232D2F7E49
S1130970B22E2AE030E025C0932D997FB92E8F3610
S1130980C1F018F4883579F0AEC0803719F0883793
S113099021F0A9C0E92FE061BE2EB4FE0DC0FB2DED
S11309A0F460BF2E09C034FE0AC0292F2660B22E7F
S11309B006C028E030E005C020E130E002C020E1BC
S11309C032E0F801B7FE07C06081718182819381B2
S11309D00C5F1F4F06C06081718180E090E00E5F64
S11309E01F4FA301F1D0882E8618FB2DFF773F2ED1
S11309F036FE0DC0232D2E7FA22E891458F434FE0A
S1130A000BC032FC09C0832D8E7EA82E05C0B82CE5
S1130A10A32C03C0B82C01C0B92CA4FE0FC0FE0146
S1130A20E80DF11D8081803321F49A2D997EA92E41
S1130A3009C0A2FE06C0B394B39404C08A2D86787C
S1130A4009F0B394A3FC10C0A0FE06C0B21480F455
S1130A50280C922C9B180DC0B21458F4B60180E2F5
S1130A6090E076D0B394F8CFB21418F42B1802C0E7
S1130A70982C212CA4FE0FC0B60180E390E068D02E
S1130A80A2FE16C0A1FC03C088E790E002C088E57E
S1130A9090E0B6010CC08A2D867851F0A1FE02C008
S1130AA08BE201C080E2A7FC8DE2B60190E050D059
S1130AB0891430F4B60180E390E04AD09A94F8CFD8
S1130AC08A94F301E80DF11D8081B60190E040D0D5
S1130AD08110F6CF222009F44ECEB60180E290E0D8
S1130AE037D02A94F7CFF6018681978102C08FEF21
S1130AF09FEF2B960FB6F894DEBF0FBECDBFDF91EC
S1130B00CF911F910F91FF90EF90DF90CF90BF9006
S1130B10AF909F908F907F906F905F904F903F9099
S1130B202F900895FC010590615070400110D8F792
S1130B30809590958E0F9F1F0895FC016150704021
S1130B4001900110D8F7809590958E0F9F1F0895FE
S1130B500F931F93CF93DF93FB01238121FD03C0E8
S1130B608FEF9FEF2CC022FF16C04681578124814E
S1130B7035814217530744F4A081B1819D012F5F51
S1130B803F4F318320838C93268137812F5F3F4FE2
S1130B903783268314C08B01EC01FB010084F185AB
S1130BA0E02D0995892BE1F6D80116968D919C913B
S1130BB01797019617969C938E931697CE01DF9103
S1130BC0CF911F910F910895FA01AA27283051F16E
S1130BD0203181F1E8946F936E7F6E5F7F4F8F4F6A
S1130BE09F4FAF4FB1E03ED0B4E03CD0670F781FC9
S1130BF0891F9A1FA11D680F791F8A1F911DA11DAE
S1130C006A0F711D811D911DA11D20D009F46894E6
S1130C103F912AE0269F11243019305D3193DEF68E
S1130C20CF010895462F4770405D4193B3E00FD044
S1130C30C9F7F6CF462F4F70405D4A3318F0495D2F
S1130C4031FD4052419302D0A9F7EACFB4E0A69512
S1130C509795879577956795BA95C9F70097610534
S1130C60710508959B01AC010A2E0694579547958A
S1130C7037952795BA95C9F7620F731F841F951F7F
S10B0C80A01D0895F894FFCFB4
S1130C88040000000200000000F902000000000057
S1130C98140B0502071A0D0A0D0A2D2D2D20537960
S1130CA87374656D205374617274202D2D2D0D009D
S1130CB82A2053657474696E6720525443206D6FFB
S1130CC864756C652E2E2E0D0020256474682062D0
S1130CD8797465207772697474656E202E2E2E20BF
S1130CE80D0A002A205254432053657474696E67B0
S1130CF820436F6D706C6574652120537461727440
S1130D08696E67205265616C2D54696D65204F7555
S1130D18747075742E2E2E0D0A003230253032640C
S1130D282D253032642D2530326420253032643A42
S1130D38253032643A253032640D0A002530326495
S1130D482D253032642D2530326400253032643A42
S10D0D58253032643A25303264007D
S9030000FC
