S015000031335F312E204C4344313630322E7372656331
S113000045C0000060C000005EC000005CC000008D
S11300105AC0000058C0000056C0000054C0000080
S113002052C0000050C000004EC000004CC0000090
S11300304AC0000048C0000046C0000044C00000A0
S113004042C0000040C000003EC000003CC00000B0
S11300503AC0000038C0000036C0000034C00000C0
S113006032C0000030C000002EC000002CC00000D0
S11300702AC0000028C0000026C0000024C00000E0
S113008022C0000020C000001EC0000011241FBEBA
S1130090CFEFD0E1DEBFCDBF11E0A0E0B1E0E8E6F4
S11300A0F2E000E00BBF02C007900D92AA30B10746
S11300B0D9F721E0AAE0B1E001C01D92AA30B2074D
S11300C0E1F702D0CFC09CCF86D081E091E0AED0E2
S11300D02FEF83ED90E3215080409040E1F700C082
S11300E0000070D060E080E0B3D08AE62FD065E0F5
S11300F080E0AED089E62AD060E081E0A9D089E72B
S113010025D063E081E0A4D085E720D065E081E0DC
S11301109FD08EE61BD02FEF83ED90E321508040DB
S11301209040E1F700C00000CFCF85B3846085BB69
S113013085E08A95F1F7000085B38B7F85BB8FE955
S11301409FE00197F1F700C000000895CF93C82FF6
S113015085B3816085BB80910001883019F4C8BBE8
S1130160E4DF0AC08C2F807F88BBDFDF20E1C29FE1
S1130170C001112488BBD9DF8FE39FE10197F1F718
S113018000C00000CF910895CF93C82F85B38E7F10
S113019085BB80910001883019F4C8BBC6DF0AC052
S11301A08C2F807F88BBC1DF20E1C29FC001112456
S11301B088BBBBDF8FE39FE10197F1F700C000002C
S11301C0CF91089581E0E0DF8FE39FE10197F1F79C
S11301D000C0000008952FEF80E792E02150804096
S11301E09040E1F700C0000080910001883019F4CC
S11301F08FEF87BB03C087B3806F87BB18BA84B304
S1130200876084BB85B38D7F85BB80910001883076
S113021019F488E3B9DF04C082E0B6DF88E2B4DF12
S11302208CE0B2DFCFDF86E0AFCF08950F931F934A
S1130230CF938C01C0E002C089DFCF5FF801EC0FDF
S1130240F11D80818111F8CFCF911F910F910895F5
S11302506F70817090E4899F600D1124862F8058FF
S10B026093CF0895F894FFCF39
S10D0268046869206C63642121001E
S9030000FC
