S015000030352E554C545241534F4E49432E7372656378
S113000045C0000061C000005FC000005DC000008A
S11300105BC00000C7C1000057C0000055C000000D
S113002053C0000051C000004FC000004DC000008C
S11300304BC0000049C0000047C0000045C000009C
S113004044C0000041C00000C0C000003DC000002A
S11300503BC0000039C0000037C0000035C00000BC
S113006033C0000031C000002FC000002DC00000CC
S11300702BC0000029C0000027C0000025C00000DC
S113008023C0000021C000001FC0000011241FBEB7
S1130090CFEFD0E1DEBFCDBF11E0A0E0B1E0E6E0FC
S11300A0F3E100E00BBF02C007900D92AC31B10741
S11300B0D9F724E0ACE1B1E001C01D92A238B20747
S11300C0E1F74BD00C9481099BCF1F920F920090C3
S11300D05F000F92112400905B000F922F938F9377
S11300E09F93AF93BF93EF93FF93CF93DF93CDB7DA
S11300F0DEB782E590E026E0FC01208380911C01BC
S113010090911D01A0911E01B0911F010196A11DA6
S1130110B11D80931C0190931D01A0931E01B09307
S11301201F0180912001909121010196909321015A
S1130130809320010000DF91CF91FF91EF91BF9157
S1130140AF919F918F912F910F9000925B000F9030
S113015000925F000F901F901895CF93DF93CDB757
S1130160DEB70BD0E1D09ED180E091E090937F0484
S113017080937E047894CBD3FECFCF93DF93CDB717
S1130180DEB782E590E026E0FC01208383E590E081
S113019023E530E0F9012081287FFC01208383E5F9
S11301A090E023E530E0F90120812460FC01208304
S11301B087E590E027E530E0F90120812160FC012A
S11301C020830000DF91CF9108951F920F92009039
S11301D05F000F92112400905B000F922F933F93C6
S11301E04F935F936F937F938F939F93AF93BF933B
S11301F0EF93FF93CF93DF931F92CDB7DEB78CE2DB
S113020090E0FC018081898389818A3021F0898191
S11302108D3009F03CC08091220190912301019618
S11302202AE030E0B901A9D39C0180912401909186
S113023025014AE050E0BA01A0D32817390709F490
S113024058C0409122015091230180912601909140
S1130250270160E5649F9001659F300D1124820F92
S1130260931F865D9E4FFC0110821092270110920D
S11302702601809122019091230101962AE030E029
S1130280B9017BD3909323018093220135C08091DF
S113029022019091230101962AE030E0B9016DD347
S11302A09C0180912401909125014AE050E0BA011B
S11302B064D328173907F9F04091220150912301A2
S11302C080912601909127019C012F5F3F4F30932D
S11302D0270120932601698170E5749F9001759F21
S11302E0300D1124820F931F865D9E4FFC016083A5
S11302F003C0000001C000000F90DF91CF91FF9177
S1130300EF91BF91AF919F918F917F916F915F9189
S11303104F913F912F910F9000925B000F900092AC
S11303205F000F901F901895CF93DF93CDB7DEB782
S113033080E990E0FC01108289E290E02FECFC015E
S113034020838BE290E02BE230E0F90120812260EF
S1130350FC0120838AE290E02AE230E0F901208166
S11303602869FC0120830000DF91CF910895CF9389
S1130370DF931F92CDB7DEB7898300008BE290E054
S1130380FC018081882F90E080729927892BB1F33A
S11303908CE290E02981FC01208300000F90DF9122
S11303A0CF9108951F920F9200905F000F92112435
S11303B000905B000F922F933F934F935F936F9343
S11303C07F938F939F93AF93BF93EF93FF93CF93B9
S11303D0DF93CDB7DEB783E290E0FC018081882F04
S11303E090E080719927892B31F08CE490E0FC0136
S11303F0118210823FC08CE490E0FC0180819181E5
S1130400CC01A0E0B0E09C01AD0160E070E089E0C7
S11304109DE3A4D2DC01CB0120E034E244EF50E0C0
S1130420BC01CD01BDD2DA01C901909329018093A9
S1130430280180912801909129012AE330E0B90133
S11304409CD2CB01292F2F938F938EE091E0892F9B
S11304508F938EE091E08F938AE494E0892F8F93B9
S11304608AE494E08F9372D40F900F900F900F90C2
S11304700F900F900000DF91CF91FF91EF91BF910A
S1130480AF919F918F917F916F915F914F913F9128
S11304902F910F9000925B000F9000925F000F90DD
S11304A01F901895CF93DF93CDB7DEB784E690E025
S11304B024E630E0F90120812061FC01208382E2FE
S11304C090E022E230E0F90120812F7EFC012083BC
S11304D08AE590E02AE530E0F90120812160FC0101
S11304E020838EE490E02EE430E0F9012081256041
S11304F0FC01208389E590E029E530E0F9012081C1
S11305002061FC0120830000DF91CF910895CF93F7
S1130510DF93CDB7DEB7C054D1090FB6F894DEBF70
S11305200FBECDBF85E690E025E630E0F9012081DD
S11305302F7EFC01208380E090E0A0E8BFE3898364
S11305409A83AB83BC832BEA3AEA4AEA50E4698192
S11305507A818B819C8184D3DC01CB018DA39EA302
S1130560AFA3B8A720E030E040E850E469817A8185
S11305708B819C8175D3DC01CB0189A79AA7ABA79A
S1130580BCA720E030E040E85FE36DA17EA18FA12D
S113059098A555D288231CF481E08DA7A7C020E03C
S11305A03FEF4FE757E469A57AA58BA59CA554D3E3
S11305B018160CF074C020E030E04AE754E4698176
S11305C07A818B819C813FD2DC01CB018EA79FA7CE
S11305D0A8ABB9AB20E030E04AE755E46EA57FA5AF
S11305E088A999A93DD3DC01CB018AAB9BABACAB09
S11305F0BDAB20E030E040E85FE36AA97BA98CA9A9
S11306009DA91DD288232CF481E090E09FAB8EAB92
S11306103BC020E03FEF4FE757E46AA97BA98CA9D0
S11306209DA91AD318163CF520E030E040E251E4CD
S11306306EA57FA588A999A913D3DC01CB01BC01C0
S1130640CD0169D2DC01CB019FAB8EAB0FC080E939
S113065091E099AF88AF88AD99AD0197F1F799AF63
S113066088AF8EA99FA901979FAB8EAB8EA99FA936
S1130670892B69F73BC06AA97BA98CA99DA94BD298
S1130680DC01CB019FAB8EAB8EA99FA99BAF8AAF38
S11306908AAD9BAD0197F1F79BAF8AAF27C020E0ED
S11306A030E04FE753E46DA17EA18FA198A5D4D289
S11306B01816A4F469A57AA58BA59CA52CD2DC01F7
S11306C0CB019DAF8CAF8CAD9DAD9FAF8EAF8EAD8A
S11306D09FAD0197F1F79FAF8EAF1BC06DA17EA1B7
S11306E08FA198A518D2DC01CB018DA72DA5CE0131
S11306F0805C9F4FFC012083CE01805C9F4FFC01F6
S11307008081282F2A95F1F7CE01805C9F4FFC0150
S1130710208385E690E025E630E0F9012081206120
S1130720FC01208380E090E0A0E7B1E48D839E8308
S1130730AF83B8872BEA3AEA4AEA50E46D817E81B6
S11307408F8198858DD2DC01CB0189879A87AB870D
S1130750BC8720E030E040E850E46D817E818F81E9
S113076098857ED2DC01CB018D879E87AF87B88BBD
S113077020E030E040E85FE369857A858B859C85DD
S11307805ED188231CF481E0898BA7C020E03FEF71
S11307904FE757E46D857E858F8598895DD218165D
S11307A00CF074C020E030E04AE754E46D817E81AF
S11307B08F81988548D1DC01CB018A8B9B8BAC8BD4
S11307C0BD8B20E030E04AE755E46A897B898C8957
S11307D09D8946D2DC01CB018E8B9F8BA88FB98F6C
S11307E020E030E040E85FE36E897F89888D998D51
S11307F026D188232CF481E090E09B8F8A8F3BC024
S113080020E03FEF4FE757E46E897F89888D998D0B
S113081023D218163CF520E030E040E251E46A8926
S11308207B898C899D891CD2DC01CB01BC01CD0163
S113083072D1DC01CB019B8F8A8F0FC080E991E0DC
S11308409D8F8C8F8C8D9D8D0197F1F79D8F8C8F53
S11308508A8D9B8D01979B8F8A8F8A8D9B8D892B87
S113086069F73BC06E897F89888D998D54D1DC01ED
S1130870CB019B8F8A8F8A8D9B8D9F8F8E8F8E8DC0
S11308809F8D0197F1F79F8F8E8F27C020E030E076
S11308904FE753E469857A858B859C85DDD11816ED
S11308A0A4F46D857E858F85988935D1DC01CB01D3
S11308B099A388A388A199A19BA38AA38AA19BA198
S11308C00197F1F79BA38AA30EC069857A858B856E
S11308D09C8521D1DC01CB01898B89898CA38CA1D6
S11308E08A95F1F78CA385E690E025E630E0F901DE
S11308F020812F7EFC0120830000C05CDF4F0FB6F7
S1130900F894DEBF0FBECDBFDF91CF910895CF9392
S1130910DF93CDB7DEB78091200190912101883E0D
S11309209340C4F010922101109220018AE494E0D3
S1130930892F8F938AE494E08F9389E191E0892F42
S11309408F9389E191E08F93EED10F900F900F90E8
S11309500F90DDDD0000DF91CF910895DB018F93CF
S11309609F9340D0BF91AF91A29F800D911DA39FF3
S1130970900DB29F900D1124089597FB072E16F445
S1130980009406D077FD08D037D007FC05D03EF49C
S1130990909581959F4F0895709561957F4F089527
S11309A0A1E21A2EAA1BBB1BFD010DC0AA1FBB1F6F
S11309B0EE1FFF1FA217B307E407F50720F0A21BE1
S11309C0B30BE40BF50B661F771F881F991F1A944E
S11309D069F760957095809590959B01AC01BD0178
S11309E0CF0108951DD0A59F900DB49F900DA49F95
S11309F0800D911D11240895AA1BBB1B51E107C052
S1130A00AA1FBB1FA617B70710F0A61BB70B881F9A
S1130A10991F5A95A9F780959095BC01CD01089529
S1130A20A29FB001B39FC001A39F700D811D11242B
S1130A30911DB29F700D811D1124911D089597D0B1
S1130A4008F481E008950CD0CDC0C5D040F0BCD0EE
S1130A5030F021F45F3F19F0AEC05111F7C0B1C0BE
S1130A60D2D098F39923C9F35523B1F3951B550BB1
S1130A70BB27AA2762177307840738F09F5F5F4F6D
S1130A80220F331F441FAA1FA9F333D00E2E3AF0AE
S1130A90E0E830D091505040E695001CCAF729D0C8
S1130AA0FE2F27D0660F771F881FBB1F2617370717
S1130AB04807AB07B0E809F0BB0B802DBF01FF2747
S1130AC093585F4F2AF09E3F510568F074C0BEC032
S1130AD05F3FECF3983EDCF3869577956795B79581
S1130AE0F7959F5FC9F7880F911D9695879597F99C
S1130AF00895E1E0660F771F881FBB1F6217730715
S1130B008407BA0720F0621B730B840BBA0BEE1F29
S1130B1088F7E09508957FD088F09F5790F0B92F1B
S1130B209927B751A0F0D1F0660F771F881F991F3E
S1130B301AF0BA95C9F712C0B13081F086D0B1E08D
S1130B40089583C0672F782F8827B85F39F0B93F9D
S1130B50CCF3869577956795B395D9F73EF4909540
S1130B608095709561957F4F8F4F9F4F0895990F92
S1130B700008550FAA0BE0E8FEEF16161706E80763
S1130B80F907C0F012161306E407F50798F0621B84
S1130B90730B840B950B39F40A2661F0232B242B59
S1130BA0252B21F408950A2609F4A140A6958FEF78
S1130BB0811D811D089597F99F6780E870E060E0CA
S1130BC008959FEF80EC089500240A9416161706E2
S1130BD018060906089500240A941216130614062A
S1130BE005060895092E0394000C11F4882352F08D
S1130BF0BB0F40F4BF2B11F460FF04C06F5F7F4F45
S1130C008F4F9F4F089557FD9058440F551F59F02B
S1130C105F3F71F04795880F97FB991F61F09F3FE5
S1130C2079F087950895121613061406551FF2CF0E
S1130C304695F1DF08C0161617061806991FF1CF5E
S1130C4086957105610508940895E894BB27662785
S1130C507727CB0197F908958ADF08F48FEF089579
S1130C600BD0C0CFB1DF28F0B6DF18F0952309F020
S1130C70A2CFA7CF1124EACFC6DFA0F3959FD1F36B
S1130C80950F50E0551F629FF001729FBB27F00D36
S1130C90B11D639FAA27F00DB11DAA1F649F66278B
S1130CA0B00DA11D661F829F2227B00DA11D621FDA
S1130CB0739FB00DA11D621F839FA00D611D221F94
S1130CC0749F3327A00D611D231F849F600D211D78
S1130CD0822F762F6A2F11249F5750408AF0E1F01B
S1130CE088234AF0EE0FFF1FBB1F661F771F881F64
S1130CF091505040A9F79E3F510570F05CCFA6CFAC
S1130D005F3FECF3983EDCF3869577956795B7954E
S1130D10F795E7959F5FC1F7FE2B880F911D969578
S1130D20879597F90895CF93DF93CDB7DEB7AE01DA
S1130D304B5F5F4FFA0161917191AF0180917E0425
S1130D4090917F0431D0DF91CF9108950F931F9339
S1130D50CF93DF93CDB7DEB72E970FB6F894DEBFEF
S1130D600FBECDBF0D891E8986E08C831A8309834B
S1130D708FEF9FE79E838D83AE01475E5F4F6F8940
S1130D80788DCE01019610D0EF81F885E00FF11F28
S1130D9010822E960FB6F894DEBF0FBECDBFDF9142
S1130DA0CF911F910F9108952F923F924F925F928E
S1130DB06F927F928F929F92AF92BF92CF92DF9267
S1130DC0EF92FF920F931F93CF93DF93CDB7DEB7CC
S1130DD02B970FB6F894DEBF0FBECDBF6C017B011D
S1130DE08A01FC0117821682838181FFBFC1CE0173
S1130DF001963C01F6019381F70193FD859193FFE0
S1130E0081917F01882309F4ADC1853239F493FDC2
S1130E10859193FF81917F01853221F4B60190E0A1
S1130E20D6D1E8CF912C212C312CFFE1F315D8F049
S1130E308B3279F038F4803279F08332A1F4232DA7
S1130E4020611DC08D3261F0803369F4232D21604F
S1130E5016C0832D8260382EE32DE4603E2E2AC016
S1130E60F32DF8601DC037FC2DC020ED280F2A306B
S1130E7040F08E32B9F436FC75C1232D2064322E35
S1130E8019C036FE06C08AE0989E200D1124922EC9
S1130E9011C0EAE02E9E200D1124222EF32DF062C3
S1130EA03F2E08C08C3621F4832D8068382E02C072
S1130EB0883641F4F70193FD859193FF81917F0179
S1130EC08111B3CF982F9F7D9554933028F40C5FF4
S1130ED01F4F9FE399830DC0833631F0833771F040
S1130EE0833509F055C020C0F801808189830E5FE5
S1130EF01F4F88248394912C530112C02801F2E0DF
S1130F004F0E511CF801A080B18036FE03C0692D3C
S1130F1070E002C06FEF7FEFC5014ED14C0182013A
S1130F20F32DFF773F2E15C0280122E0420E511CFD
S1130F30F801A080B18036FE03C0692D70E002C0C4
S1130F406FEF7FEFC5012DD14C01F32DF0683F2EDB
S1130F50820133FC19C0822D90E088169906A0F412
S1130F60B60180E290E033D12A94F5CFF50137FC45
S1130F70859137FE81915F01B60190E028D121105F
S1130F802A9421E0821A91088114910479F7E1C02E
S1130F90843611F0893639F5F80137FE07C06081CF
S1130FA07181828193810C5F1F4F08C060817181C0
S1130FB0072E000C880B990B0E5F1F4FF32DFF7645
S1130FC03F2E97FF09C090958095709561957F4F4E
S1130FD08F4F9F4FF0683F2E2AE030E0A30133D1BA
S1130FE0882E861844C0853731F4232D2F7EB22EE7
S1130FF02AE030E025C0932D997FB92E8F36C1F0B9
S113100018F4883579F0AEC0803719F0883721F0AC
S1131010A9C0E92FE061BE2EB4FE0DC0FB2DF46023
S1131020BF2E09C034FE0AC0292F2660B22E06C086
S113103028E030E005C020E130E002C020E132E0E9
S1131040F801B7FE07C060817181828193810C5FD2
S11310501F4F06C06081718180E090E00E5F1F4FDA
S1131060A301F1D0882E8618FB2DFF773F2E36FE84
S11310700DC0232D2E7FA22E891458F434FE0BC0EC
S113108032FC09C0832D8E7EA82E05C0B82CA32C5B
S113109003C0B82C01C0B92CA4FE0FC0FE01E80D9A
S11310A0F11D8081803321F49A2D997EA92E09C0E7
S11310B0A2FE06C0B394B39404C08A2D867809F0C6
S11310C0B394A3FC10C0A0FE06C0B21480F4280C94
S11310D0922C9B180DC0B21458F4B60180E290E033
S11310E076D0B394F8CFB21418F42B1802C0982C0D
S11310F0212CA4FE0FC0B60180E390E068D0A2FECC
S113110016C0A1FC03C088E790E002C088E590E027
S1131110B6010CC08A2D867851F0A1FE02C08BE284
S113112001C080E2A7FC8DE2B60190E050D08914A2
S113113030F4B60180E390E04AD09A94F8CF8A94D0
S1131140F301E80DF11D8081B60190E040D08110DB
S1131150F6CF222009F44ECEB60180E290E037D0DB
S11311602A94F7CFF6018681978102C08FEF9FEF13
S11311702B960FB6F894DEBF0FBECDBFDF91CF9193
S11311801F910F91FF90EF90DF90CF90BF90AF90A1
S11311909F908F907F906F905F904F903F902F9093
S11311A00895FC010590615070400110D8F78095B6
S11311B090958E0F9F1F0895FC016150704001901F
S11311C00110D8F7809590958E0F9F1F08950F9367
S11311D01F93CF93DF93FB01238121FD03C08FEF86
S11311E09FEF2CC022FF16C0468157812481358190
S11311F04217530744F4A081B1819D012F5F3F4FF3
S1131200318320838C93268137812F5F3F4F37832F
S1131210268314C08B01EC01FB010084F185E02DD1
S11312200995892BE1F6D80116968D919C91179713
S1131230019617969C938E931697CE01DF91CF91CA
S11312401F910F910895FA01AA27283051F12031F6
S113125081F1E8946F936E7F6E5F7F4F8F4F9F4F46
S1131260AF4FB1E03ED0B4E03CD0670F781F891F88
S11312709A1FA11D680F791F8A1F911DA11D6A0F56
S1131280711D811D911DA11D20D009F468943F9109
S11312902AE0269F11243019305D3193DEF6CF0108
S11312A00895462F4770405D4193B3E00FD0C9F7CE
S11312B0F6CF462F4F70405D4A3318F0495D31FD3B
S11312C04052419302D0A9F7EACFB4E0A69597958E
S11312D0879577956795BA95C9F700976105710564
S11312E008959B01AC010A2E0694579547953795AE
S11312F02795BA95C9F7620F731F841F951FA01D08
S10913000895F894FFCFEC
S11313060000000200000000B7010000000064694C
S10F1316733A202564636D0A00257300FF
S9030000FC
