S021000030392E50574D5F534552564F5F5049455A4F5F42555A5A45522E7372656363
S113000045C0000060C000005EC000005CC000008D
S11300105AC0000058C0000056C0000054C0000080
S113002052C0000050C000004EC000004CC0000090
S11300304AC0000048C0000046C0000044C00000A0
S113004042C0000040C000003EC000003CC00000B0
S11300503AC0000038C0000036C0000034C00000C0
S113006032C0000030C000002EC000002CC00000D0
S11300702AC0000028C0000026C0000024C00000E0
S113008022C0000020C000001EC0000011241FBEBA
S1130090CFEFD0E1DEBFCDBF12E0A0E0B1E0E0E6FB
S11300A0F2E000E00BBF02C007900D92A430B1074C
S11300B0D9F722E0A4E0B2E001C01D92A830B20753
S11300C0E1F744D0CBC09CCF81B3877881BB08953E
S11300D020B3422F50E021E030E002C0220F331F52
S11300E06A95E2F72423352321153105A1F0FC019B
S11300F0EC5FFD4F408141110EC0EFE5FAEE319700
S1130100F1F700C00000FC01EC5FFD4F21E020830B
S113011080E090E00895FC01EC5FFD4F40814130A8
S113012079F4232B81F4FC01EC5FFD4F10828FE501
S11301309AEE0197F1F700C0000081E090E0089585
S113014080E090E0089580E090E0089577D0BCDFEF
S113015063E070E080E090E0BBDF019771F46AEF48
S113016071E088E791E042D02FEF8AE693E02150D6
S113017080409040E1F700C0000064E070E081E05E
S113018090E0A6DF019771F460EF71E08EE691E0F4
S11301902DD02FEF8AE693E0215080409040E1F784
S11301A000C0000065E070E082E090E091DF01971C
S11301B079F662E871E080E091E018D02FEF8AE6EA
S11301C093E0215080409040E1F700C00000C0CF90
S11301D007C08FE99FE00197F1F700C00000C90153
S11301E09C0121503109892BA1F70895EF92FF92C8
S11301F00F931F93CF93DF93EC017B0114C006E8A8
S113020010E0F80191838083F701819191917F013E
S1130210DFDF2296F801118210828FE39CE90197B7
S1130220F1F700C0000088819981009741F7DF91C0
S1130230CF911F910F91FF90EF90089582B1886044
S113024082B980E480938B008AE080938A001092C4
S11302508C0010928700109286000895F894FFCFC6
S1130260FC04BC03F4037004FC04ED059805FC04D1
S11302707004A706ED059805ED05FC04FC04BC0319
S1130280F4037004FC04BC03BC035303BC03F40375
S11302907004F403BC03BC03CC02F6025303BC0396
S11302A070043104BC035303FC047004310470046F
S11302B0BC03BC03CC02F6025303BC03CC02CC0245
S11302C07E02CC02F6025303F602CC020000F60EC4
S11302D0DE0BF6090C070000E703F3014C01F900FB
S11302E000005501AA00AA00AA0055015501AA0060
S11302F0AA00AA00AA00AA00AA00550155015501A6
S1130300AA00AA00AA0055015501AA00AA00AA0041
S1130310AA00AA00AA00AA025501AA00AA00AA00DB
S113032055015501AA00AA00AA00AA00AA00AA0021
S1130330550155015501AA00AA00AA00550155010D
S1130340AA00AA00AA00AA00AA00AA00AA025405A8
S11303504600460046004600B80B460046004600EC
S10703604600B80B8C
S9030000FC
